:100000000C9434000C9451000C9451000C94510049
:100010000C9453000C9451000C9451000C9451001A
:100020000C9451000C9451000C9451000C9451000C
:100030000C9451000C9451000C9451000C945100FC
:100040000C9451000C9451000C9451000C945100EC
:100050000C9451000C9451000C9451000C945100DC
:100060000C9451000C94510011241FBECFEFD8E026
:10007000DEBFCDBF11E0A0E0B1E0E6EBF2E002C0F0
:1000800005900D92A230B107D9F721E0A2E0B1E0CE
:1000900001C01D92AB31B207E1F70E940F010C9431
:1000A00059010C9400001F920F920FB60F92112469
:1000B0002F938F939F9386B180931801809118019D
:1000C000807180931A0180911801807280930201DF
:1000D0008091170181111BC080911A01882349F07A
:1000E00081E08093190180910001909101010196B6
:1000F00049C080910201882309F448C082E08093BE
:100100001901809100019091010101973BC08091FC
:100110001701813069F480911A01811103C0109296
:1001200019012BC080910201882381F183E016C060
:1001300080911701823069F480911A01882311F0AF
:1001400083E019C080910201811120C01092190131
:1001500007C080911A01811109C082E080931901C2
:1001600080910001909101010A960CC080910201DA
:1001700081110CC081E08093190180910001909160
:1001800001010A9790930101809300018091000181
:10019000909101018C3B910534F48CEB90E09093AD
:1001A000010180930001809100019091010184334D
:1001B000924034F083E392E0909301018093000138
:1001C000809100019091010190938B0080938A00AF
:1001D00080911901809317019F918F912F910F901A
:1001E0000FBE0F901F901895E1E8F0E02081286184
:1001F0002083A0E8B0E02C9123602C932C91206206
:100200002C93909389008093880087E791E09093E6
:100210008B0080938A00808183608083089587B1FA
:100220008F7C87B988B1806388B9229A80916800F1
:1002300082608093680080916C00806380936C0082
:1002400088E893E10E94F400789486B180931801C5
:1002500080911801807180931A0180911801807239
:100260008093020180910201811107C080911A01DF
:10027000811103C01092170117C0809102018111F2
:1002800006C080911A01882311F081E00BC0809193
:100290000201882331F080911A01811102C082E0AD
:1002A00001C083E0809317018091170180931901A9
:0602B000FFCFF894FFCF20
:0202B6007701CE
:00000001FF
