:100000000C943A000C9457000C9457000C94000385
:100010000C946B000C9457000C9457000C945700F0
:100020000C9457000C9457000C9457000C949D01AD
:100030000C9457000C9457000C9457000C945700E4
:100040000C9457000C9457000C94B4010C94570076
:100050000C9457000C9457000C9457000C945700C4
:100060000C9457000C9457006364696E6F7073753D
:1000700078585B0011241FBECFEFD8E0DEBFCDBFA4
:1000800011E0A0E0B1E0E6ECF7E102C005900D92CE
:10009000A032B107D9F721E0A0E2B1E001C01D9282
:1000A000A134B207E1F70E94C7040C94E10B0C9451
:1000B00000003998419A3A98429A3B9A4398089599
:1000C000E8E6F0E0808182608083ECE6F0E0808109
:1000D0008660808308951F920F920FB60F921124AD
:1000E0007F928F929F92AF92BF92CF92DF92EF92C8
:1000F000FF920F931F932F933F934F935F936F93B1
:100100007F938F939F93AF93BF93EF93FF93CF937F
:10011000DF93CDB7DEB7E097DEBFCDBF86B182708B
:100120008093340186B184708093230180913401DF
:10013000811116C080912001811112C081E080934D
:100140002001809181008B7F8093810080918100CC
:100150008360809381001092220110922101439AC2
:100160008091230181118BC080912001813009F0A1
:1001700086C01092200180918100887F8093810049
:100180004398209121013091220140E050E060EE3F
:100190007CE881E090E00E946C0569017A01C90168
:1001A0006AE070E00E9458055B018C0181E00E94CA
:1001B000270261E080E00E94390280912101909144
:1001C00022019F938F9380E091E09F938F931F92E2
:1001D00080E1782E7F924E0181E1880E911C9F92E2
:1001E0008F920E94AD05C4010E9498026CE080E0ED
:1001F0000E9439021F930F93BF92AF9286E091E065
:100200009F938F931F927F924E0191E2890E911CD2
:100210009F928F920E94AD05C4010E949802B092F5
:100220003601A0923501109327010093260169E061
:1002300080E00E9439028CE091E00E94980260E028
:1002400081E00E9439020E9465049F938F938EE0A3
:1002500091E09F938F931F927F928E010F5F1F4FAC
:100260001F930F930E94AD05C8010E949802C6011A
:100270000E948D040FB6F894DEBF0FBECDBFE0968E
:100280000FB6F894DEBF0FBECDBFDF91CF91FF91C7
:10029000EF91BF91AF919F918F917F916F915F91FE
:1002A0004F913F912F911F910F91FF90EF90DF9011
:1002B000CF90BF90AF909F908F907F900F900FBE88
:1002C0000F901F9018950F931F93CF93DF93EC011E
:1002D0008B010E946504C817D90719F4012BB9F0E6
:1002E00003C08C179D0798F484E690E0449AEBEAEB
:1002F000F7E13197F1F700C000004498EBEAF7E12D
:100300003197F1F700C000000197009779F7DF916E
:10031000CF911F910F9108953C9A0895E1E8F0E084
:10032000208128602083EFE6F0E020812260208396
:10033000909389008093880008951F920F920FB6C2
:100340000F9211248F939F9380912101909122010C
:10035000019690932201809321019F918F910F909C
:100360000FBE0F901F9018951F920F920FB60F920D
:1003700011242F933F938F939F93EF93FF9320919B
:10038000C600203451F481E08093280110922A01A4
:1003900010922901109237012BC030912801313081
:1003A00039F580ED820F8A30B8F48091290190915F
:1003B0002A010597D8F4E0912901F0912A01E55D21
:1003C000FE4F20838091290190912A0101969093FC
:1003D0002A01809329010CC0243241F48091290123
:1003E00090912A01892B11F0309337011092280146
:1003F000FF91EF919F918F913F912F910F900FBEA1
:100400000F901F90189580912101909122010895DD
:100410008091350190913601089580912601909147
:1004200027010895809130019091310108958091C4
:1004300032019091330108959BB19F709BB99BB19C
:10044000807F892B8BB9299A299A29980895CF936F
:10045000C82F28980E941C028C2F8295807F0E94B2
:100460001C028FE39FE10197F1F700C00000CF91DC
:100470000895811102C090E001C090E480E8860FE9
:10048000890F0C94270284B1836084B98AB1806F8C
:100490008AB987B18B7E87B988B1846188B98FE5C5
:1004A0009AEE0197F1F700C0000080E30E941C0261
:1004B0008FE19EE40197F1F700C0000080E30E9405
:1004C0001C028FED91E00197F1F700C0000080E37E
:1004D0000E941C0280E20E941C028FE39FE10197B0
:1004E000F1F700C0000088E20E9427028FE39FE13D
:1004F0000197F1F700C000008FE00E9427028FE310
:100500009FE10197F1F700C000000895CF93C82F35
:10051000289A0E941C028C2F8295807F0E941C02C8
:100520008FE39FE10197F1F700C00000CF9108959C
:100530001F93CF93DF93EC0110E0FE01E10FF11D5B
:100540008081882321F00E9486021F5FF6CFDF9111
:10055000CF911F91089584B1877E84B985B1886158
:1005600085B98091680081608093680080916B00FC
:10057000886180936B0083B180933A0180913A0146
:1005800088708093400180913A0180718093380196
:1005900080913801811107C080914001811103C011
:1005A0001092390117C080913801811106C08091E5
:1005B0004001882311F081E00BC08091380188232D
:1005C00031F080914001811102C082E001C083E0DE
:1005D000809339018091390180933B0188EC90E050
:1005E0000E947D0A90E09C0121503109233631059B
:1005F00010F082E390E090933F0180933E010895D4
:100600001F920F920FB60F9211247F928F929F929A
:10061000AF92BF92CF92DF92EF92FF920F931F9310
:100620002F933F934F935F936F937F938F939F93FA
:10063000AF93BF93EF93FF93CF93DF93CDB7DEB725
:10064000C054D109DEBFCDBF83B180933A01809100
:100650003A0188708093400180913A0180718093C3
:10066000380180913B018093390180913E01909146
:100670003F0190933D0180933C01809139018111AC
:100680000DC080914001882311F081E02EC080913F
:100690003801882309F441C082E034C080913901D7
:1006A000813069F480914001811103C010923B01B7
:1006B0002BC080913801882381F183E016C080919E
:1006C0003901823069F480914001882311F083E080
:1006D00019C080913801811120C010923B0107C0E0
:1006E00080914001811109C082E080933B0180919B
:1006F0003E0190913F0101960CC08091380181111B
:100700000CC081E080933B0180913E0190913F01BC
:10071000019790933F0180933E0180913E0190911B
:100720003F01892B31F481E090E090933F01809369
:100730003E0180913E0190913F018436910530F059
:1007400083E690E090933F0180933E0120913C012D
:1007500030913D0180913E0190913F01281739076A
:1007600009F48EC060913E0170913F0188EC90E0E9
:100770000E94850A0E940302182F092F0E94080276
:10078000F82EE92E0E940D02882E792E0E94120268
:10079000C82EB92E0E941702A82E992E81E00E9421
:1007A000270261E080E00E9439020F931F9320E04E
:1007B00031E03F932F931F9280E1D82EDF928E017C
:1007C0000F5C1F4F1F930F930E94AD05C8010E943D
:1007D00098026CE080E00E9439027F928F92EF9243
:1007E000FF9206E011E01F930F931F92DF927E01AC
:1007F00081E2E80EF11CFF92EF920E94AD05C70165
:100800000E94980269E080E00E9439028CE091E049
:100810000E94980260E081E00E94390220913E012E
:1008200030913F013F932F932EE031E03F932F9380
:100830001F92DF927E0191E1E90EF11CFF92EF928F
:100840000E94AD05C7010E9498026CE081E00E9401
:1008500039029F92AF92BF92CF921F930F931F9234
:10086000DF928E010F5F1F4F1F930F930E94AD0504
:100870000FB6F894DEBF0FBECDBFC8010E9498022C
:10088000C05CDF4F0FB6F894DEBF0FBECDBFDF9167
:10089000CF91FF91EF91BF91AF919F918F917F91F8
:1008A0006F915F914F913F912F911F910F91FF9009
:1008B000EF90DF90CF90BF90AF909F908F907F9000
:1008C0000F900FBE0F901F90189580913E01909150
:1008D0003F010895529A5A98089587E690E09093C0
:1008E000C5008093C400E1ECF0E0808188618083E2
:1008F00086E08093C2008081806880830895809123
:10090000C00087FFFCCF8091C60008959091C00081
:1009100095FFFCCF8093C60008950F931F93CF934C
:10092000DF93CDB7DEB760970FB6F894DEBF0FBE8A
:10093000CDBF9F938F9389E091E09F938F931F92F8
:1009400080E18F938E010F5F1F4F1F930F930E94C3
:10095000AD0580E40E9486040FB6F894DEBF0FBE9A
:10096000CDBFF80181918F01882319F00E94860480
:10097000F8CF84E20E94860460960FB6F894DEBF3A
:100980000FBECDBFDF91CF911F910F910895CF93EF
:10099000DF93CDB7DEB760970FB6F894DEBF0FBE1A
:1009A000CDBF81E080933401809323011092200118
:1009B0000E94430281E00E94270285E191E00E94AB
:1009C00098022FEF8BE792E9215080409040E1F7A9
:1009D00000C0000081E00E9427020E9459000E948E
:1009E00060008AEF90E00E948E010E94AB020E949C
:1009F0008C010E946A040E946D04789494E2692E2E
:100A000091E0792E29E0822E21E0922E3BE2A32E66
:100A100031E0B32E4AE0C42ED12C56E0452E51E0F1
:100A2000552ECE0101967C01809137018130E1F78E
:100A30007F926F929F928F92BF92AF920E94DD053C
:100A40008091240190912501B6010E9458058B01E7
:100A50008091240190912501B6010E9458051C0146
:100A60001093310100933001909333018093320150
:100A70006CE081E00E9439023F922F921F930F9306
:100A80005F924F921F9290E19F93FF92EF920E948C
:100A9000AD05C7010E949802B101C8010E9463011F
:100AA000109237010FB6F894DEBF0FBECDBFBCCF9A
:100AB000AA1BBB1B51E107C0AA1FBB1FA617B70784
:100AC00010F0A61BB70B881F991F5A95A9F78095A0
:100AD0009095BC01CD010895052E97FB1EF400945E
:100AE0000E94830557FD07D00E948B0507FC03D0A9
:100AF0004EF40C94830550954095309521953F4FC9
:100B00004F4F5F4F089590958095709561957F4FF9
:100B10008F4F9F4F0895A1E21A2EAA1BBB1BFD0108
:100B20000DC0AA1FBB1FEE1FFF1FA217B307E407CC
:100B3000F50720F0A21BB30BE40BF50B661F771F24
:100B4000881F991F1A9469F7609570958095909504
:100B50009B01AC01BD01CF010895AEE0B0E0E3EB35
:100B6000F5E00C94B80B0D891E898F89988D26E0CD
:100B70002C831A83098397FF02C080E090E80197D5
:100B80009E838D83AE01455E5F4F698D7A8DCE0168
:100B900001960E94F6054D815E8157FD0AC02F81A6
:100BA0003885421753070CF49A01F801E20FF31F3E
:100BB00010822E96E4E00C94D40BAEE0B0E0E3EEAD
:100BC000F5E00C94BA0B85E08C838B899C899A8321
:100BD0008983AE01495E5F4F6D897E89CE010196A2
:100BE0000E9446092E96E2E00C94D60BACE0B0E0F1
:100BF000ECEFF5E00C94AA0B7C016B018A01FC017F
:100C000017821682838181FFBDC1CE0101964C01FE
:100C1000F7019381F60193FD859193FF81916F0117
:100C2000882309F4ABC1853239F493FD859193FF94
:100C300081916F01853229F4B70190E00E94FE0A8C
:100C4000E7CF512C312C20E02032A0F48B3269F018
:100C500030F4803259F0833269F420612CC08D3237
:100C600039F0803339F4216026C02260246023C02B
:100C7000286021C027FD27C030ED380F3A3078F4C6
:100C800026FF06C0FAE05F9E300D1124532E13C0DC
:100C90008AE0389E300D1124332E20620CC08E3233
:100CA00021F426FD6BC1206406C08C3611F4206847
:100CB00002C0883641F4F60193FD859193FF81913E
:100CC0006F018111C1CF982F9F7D9554933028F4E7
:100CD0000C5F1F4FFFE3F9830DC0833631F083377C
:100CE00071F0833509F05BC022C0F80180818983EF
:100CF0000E5F1F4F44244394512C540115C03801FA
:100D0000F2E06F0E711CF801A080B18026FF03C0D5
:100D1000652D70E002C06FEF7FEFC5012C870E9448
:100D2000B50A2C0183012C852F77222E17C038019C
:100D3000F2E06F0E711CF801A080B18026FF03C0A5
:100D4000652D70E002C06FEF7FEFC5012C870E9418
:100D5000AA0A2C012C852068222E830123FC1BC0AB
:100D6000832D90E048165906B0F4B70180E290E078
:100D70000E94FE0A3A94F4CFF50127FC859127FEE4
:100D800081915F01B70190E00E94FE0A31103A9410
:100D9000F1E04F1A51084114510471F7E5C084364F
:100DA00011F0893639F5F80127FF07C0608171819C
:100DB000828193810C5F1F4F08C0608171818827F9
:100DC00077FD8095982F0E5F1F4F2F76B22E97FFDD
:100DD00009C090958095709561957F4F8F4F9F4F7B
:100DE0002068B22E2AE030E0A4010E94490BA82E10
:100DF000A81844C0853729F42F7EB22E2AE030E0AF
:100E000025C0F22FF97FBF2E8F36C1F018F4883538
:100E100079F0B4C0803719F0883721F0AFC02F2F98
:100E20002061B22EB4FE0DC08B2D8460B82E09C097
:100E300024FF0AC09F2F9660B92E06C028E030E03C
:100E400005C020E130E002C020E132E0F801B7FE49
:100E500007C060817181828193810C5F1F4F06C042
:100E60006081718180E090E00E5F1F4FA4010E94BD
:100E7000490BA82EA818FB2DFF77BF2EB6FE0BC07E
:100E80002B2D2E7FA51450F4B4FE0AC0B2FC08C06E
:100E90002B2D2E7E05C07A2C2B2D03C07A2C01C061
:100EA000752C24FF0DC0FE01EA0DF11D80818033F9
:100EB00011F4297E09C022FF06C07394739404C004
:100EC000822F867809F0739423FD13C020FF06C09B
:100ED0005A2C731418F4530C5718732C731468F4A9
:100EE000B70180E290E02C870E94FE0A73942C8563
:100EF000F5CF731410F4371801C0312C24FF12C041
:100F0000B70180E390E02C870E94FE0A2C8522FF27
:100F100017C021FF03C088E590E002C088E790E099
:100F2000B7010CC0822F867859F021FD02C080E203
:100F300001C08BE227FD8DE2B70190E00E94FE0A1E
:100F4000A51438F4B70180E390E00E94FE0A5A9499
:100F5000F7CFAA94F401EA0DF11D8081B70190E06A
:100F60000E94FE0AA110F5CF332009F451CEB7013B
:100F700080E290E00E94FE0A3A94F6CFF701868163
:100F8000978102C08FEF9FEF2C96E2E10C94C60B85
:100F900020FD09C0FC0123FD05C022FF02C07383B0
:100FA000628351834083089544FD10C046FD10C004
:100FB000DB01FC01AA0FBB1FEE1FFF1F1094D1F72E
:100FC0006A0F7B1F8E1F9F1F31E003C033E001C0FB
:100FD00034E0660F771F881F991F3150D1F7620FD9
:100FE000711D811D911D08950F931F93CF93DF9362
:100FF0008C01C8010E94C00AEC0197FD08C00E9444
:10100000970A892BB1F7B801CE010E94300BCE01AF
:10101000DF91CF911F910F9108958F929F92AF9280
:10102000CF92DF92EF92FF920F931F93CF93DF93B4
:10103000EC01A62E4A01022F0E94C00AAC015527DE
:101040004B32510521F04D32510551F40068AA94FC
:1010500011F480E067C0CE010E94C00A97FDF9CF6D
:10106000102F1D7F302F307301F58033F1F4FF24F2
:10107000FA94FA0C09F442C0CE010E94C00A97FD0E
:101080003DC0382F3F7D383551F41264AA94AA949C
:10109000A9F1CE010E94C00A97FF07C02FC006FF2A
:1010A00002C0126001C01261AF2CC12CD12C76019C
:1010B00020ED280F283080F014FF04C0BE010E94EC
:1010C000300B19C02A3040F016FFF8CF2F7D3FEECD
:1010D000320F363098F72750412FC701B6010E94D2
:1010E000D4076B017C011260AA9459F0CE010E94D2
:1010F000C00A97FFDDCF11FD04C0ABCFC12CD12CAE
:10110000760117FF08C0F094E094D094C094C11CFD
:10111000D11CE11CF11C212FB701A601C4010E94C2
:10112000C80781E0DF91CF911F910F91FF90EF9061
:10113000DF90CF90AF909F908F900895A1E2B0E0A4
:10114000E4EAF8E00C94AF0B5C017A018E010F5FCA
:101150001F4F680180E2D8011D928A95E9F7F501D9
:10116000738040E050E0812CB0E0912C81E090E071
:10117000F90173FCA59173FEA1918F017A2F9F0154
:10118000A11103C080E090E07DC0AE3519F4411597
:10119000510559F1E92DF0E0E417F5073CF4AD35C0
:1011A00069F1AD3219F4BB2319F103C0B11101C0CB
:1011B0008A2EE72FE695E695E69586010E0F111D1E
:1011C000F801A72FA7708C0102C0000F111FAA956C
:1011D000E2F7D801B081BA2BB083781559F07815B1
:1011E00010F47F5FE6CF7150E4CF9924939403C04D
:1011F000B1E001C0B0E04F5F5F4FBACFBB2319F041
:101200008E8180628E83911003C09924939415C0BF
:10121000F601CE018196208120952193E817F907E8
:10122000D1F7F3CFE114F10429F0D7018C93F70142
:1012300031967F01615001F1912CC50169A30E9493
:10124000C00A69A197FD16C0282F269526952695D8
:10125000F601E20FF11D208130E0AC014770552707
:1012600002C0359527954A95E2F720FDDBCFB50101
:101270000E94300B911086CFE114F10411F0D701D8
:101280001C92C801A196EDE00C94CB0B4F925F929B
:101290007F928F929F92AF92BF92CF92DF92EF9206
:1012A000FF920F931F93CF93DF931F92CDB7DEB7BB
:1012B0008C012B017A01FC0117821682A12CF80106
:1012C000D380F201D3FC8591D3FE8191382F2F0179
:1012D000882309F4FCC090E039830E94970A398181
:1012E000892B21F0C8010E94F407E9CF353241F47F
:1012F000F201D3FC3591D3FE31912F01353269F4DF
:10130000C80139830E94C00A398197FDDEC03817B1
:10131000B1F2B8010E94300BDAC03A3241F4D3FC8A
:101320003591D3FE31912F01BB24B39401C0B12C70
:10133000712C20ED230F2A3090F4FB2DF260BF2E8C
:10134000672D70E080E090E040E20E94D407762EA6
:10135000F201D3FC3591D3FE31912F01EACFB1FEDA
:1013600003C0711003C0B3C077247A94383619F0E3
:101370003C3661F014C0F201D3FC3591D3FE3191BB
:101380002F01383661F4FB2DF860BF2E8B2D846061
:10139000B82EF201D3FC3591D3FE31912F013323C6
:1013A00009F495C0632F70E088E690E039830E94CD
:1013B0009F0A3981892B09F48AC0B0FC07C0F70164
:1013C000C080D180C70102967C0102C0C12CD12C03
:1013D0003E3651F4F8014681578160E070E02B2DD4
:1013E000C6010E94C8076BCF3336A1F4B1FC02C01E
:1013F00077247394C8010E94C00A97FD66C0C11487
:10140000D10429F0F6018083C60101966C017A941B
:1014100089F757C03B3559F49201A601672DC801E1
:101420000E949E082C01009709F04BC045C0C801DE
:1014300039830E94F407398197FD47C03F3669F12F
:1014400028F4343631F1393679F12BC0333769F06D
:101450003537F9F026C0C114D10429F0F601808295
:10146000C60101966C017A9471F0C8010E94C00A0D
:101470004C0197FD08C00E94970A892B61F3B801BF
:10148000C4010E94300BC114D104D9F0F6011082BE
:1014900018C0FB2DF062BF2E07C08B2D8061B82EC7
:1014A00003C09B2D9064B92E2B2DA601672DC8017A
:1014B0000E940D08811105C0F8018381807329F411
:1014C00006C0B0FCFCCEA394FACEAA2019F08A2D57
:1014D00090E002C08FEF9FEF0F90DF91CF911F91AF
:1014E0000F91FF90EF90DF90CF90BF90AF909F90C3
:1014F0008F907F905F904F900895F999FECF92BDA5
:1015000081BDF89A992780B50895262FF999FECFC5
:1015100092BD81BDF89A019700B4021639F01FBA46
:1015200020BD0FB6F894FA9AF99A0FBE089591115A
:101530000EC1803219F089508550D0F70895FC0112
:101540000590061621F00020D9F7C00108953197C3
:10155000CF010895FC010590615070400110D8F74B
:10156000809590958E0F9F1F0895FC0161507040EB
:1015700001900110D8F7809590958E0F9F1F0895C8
:10158000CF93DF93EC012B8120FF33C026FF0AC0ED
:101590002F7B2B838E819F8101969F838E838A81EF
:1015A00090E029C022FF0FC0E881F981808199274E
:1015B00087FD9095009719F420622B831AC031960D
:1015C000F983E8830EC0EA85FB85099597FF09C07A
:1015D0002B81019611F480E101C080E2822B8B8384
:1015E00008C02E813F812F5F3F4F3F832E83992775
:1015F00002C08FEF9FEFDF91CF9108950F931F935C
:10160000CF93DF93182F092FEB018B8181FD03C04E
:101610008FEF9FEF20C082FF10C04E815F812C8131
:101620003D81421753077CF4E881F9819F012F5FC8
:101630003F4F39832883108306C0E885F985812FC1
:101640000995892B29F72E813F812F5F3F4F3F83DB
:101650002E83812F902FDF91CF911F910F910895AD
:10166000FB01238120FF12C026FD10C08F3F3FEFFA
:10167000930761F082832F7D206423832681378145
:101680002150310937832683992708958FEF9FEFE3
:101690000895FA01AA27283051F1203181F1E89408
:1016A0006F936E7F6E5F7F4F8F4F9F4FAF4FB1E055
:1016B0003ED0B4E03CD0670F781F891F9A1FA11D50
:1016C000680F791F8A1F911DA11D6A0F711D811D51
:1016D000911DA11D20D009F468943F912AE0269F16
:1016E00011243019305D3193DEF6CF010895462F75
:1016F0004770405D4193B3E00FD0C9F7F6CF462F56
:101700004F70405D4A3318F0495D31FD40524193BE
:1017100002D0A9F7EACFB4E0A6959795879577957B
:101720006795BA95C9F700976105710508959B0102
:10173000AC010A2E06945795479537952795BA958B
:10174000C9F7620F731F841F951FA01D0895992765
:10175000882708952F923F924F925F926F927F92C7
:101760008F929F92AF92BF92CF92DF92EF92FF92B1
:101770000F931F93CF93DF93CDB7DEB7CA1BDB0B5D
:101780000FB6F894DEBF0FBECDBF09942A88398802
:1017900048885F846E847D848C849B84AA84B98409
:1017A000C884DF80EE80FD800C811B81AA81B98115
:1017B000CE0FD11D0FB6F894DEBF0FBECDBFED0129
:0617C0000895F894FFCF2C
:1017C6002564206D730025642E2564003D004D615F
:1017D600783D25640053706565642054726170001D
:00000001FF
