:100000000C9434000C943E000C943E000C943E0082
:100010000C943E000C943E000C943E000C943E0068
:100020000C943E000C943E000C943E000C943E0058
:100030000C943E000C943E000C943E000C943E0048
:100040000C943E000C943E000C943E000C943E0038
:100050000C943E000C943E000C943E000C943E0028
:100060000C943E000C943E0011241FBECFEFD8E04C
:10007000DEBFCDBF0E9440000C9481000C940000B4
:10008000259A80917C00806480937C0080917C0024
:10009000846080937C0080917C00816080937C00F0
:1000A00080917C00806280937C0080917A008760E0
:1000B00080937A0080917A00806880937A008091A2
:1000C0007A00806480937A0080917A0086FDFCCF6C
:1000D000809179002D9A90E0981741F0EFE3FFE1CD
:1000E0003197F1F700C000009F5FF6CF2D988F3F4A
:1000F00031F3EFE3FFE13197F1F700C000008F5FCC
:06010000F6CFF894FFCFDA
:00000001FF
