:100000000C9434000C9449000C9449000C94490061
:100010000C9449000C9449000C9449000C9449003C
:100020000C9449000C9449000C9449000C9449002C
:100030000C9449000C9449000C9449000C9449001C
:100040000C9449000C9449000C9449000C9449000C
:100050000C9449000C9449000C9449000C944900FC
:100060000C9449000C94490011241FBECFEFD8E036
:10007000DEBFCDBF11E0A0E0B1E0EAEBF1E002C0ED
:1000800005900D92AA31B107D9F70E945B000C943C
:10009000DB000C94000005966AE070E00E94B3005B
:1000A0006115710539F085E38A95F1F7000061501B
:1000B0007109F6CF0895249A10927C0080917C00FB
:1000C000806480937C0080917C00806280937C00BF
:1000D00080917C00836080937C0010927A008091F4
:1000E0007A00876080937A0080917A00806880939C
:1000F0007A0004E180917A00806480937A00809194
:100100007A0086FDFCCF80917900602F0E94A700C5
:10011000E82FF0E0EE0FFF1FE050FF4FC081D181CC
:10012000D695C7951AE02C9ACE010E944B002C98C8
:10013000CE010E944B001150B1F72FEF83EC99E0F4
:10014000215080409040E1F700C00000D3CF991BC0
:1001500079E004C0991F961708F0961B881F7A95BE
:10016000C9F78095089597FB072E16F4009407D0E1
:1001700077FD09D00E94C70007FC05D03EF490959A
:1001800081959F4F0895709561957F4F0895AA1BA3
:10019000BB1B51E107C0AA1FBB1FA617B70710F072
:1001A000A61BB70B881F991F5A95A9F780959095A4
:0A01B000BC01CD010895F894FFCFC3
:1001BA00D21D931AAD171D15C812C410E90E490DA8
:0A01CA00D60B8F0A6A096208780755
:00000001FF
