:100000000C9434000C943E000C943E000C943E0082
:100010000C943E000C943E000C943E000C943E0068
:100020000C943E000C943E000C943E000C943E0058
:100030000C943E000C943E000C943E000C943E0048
:100040000C943E000C943E000C943E000C943E0038
:100050000C943E000C943E000C943E000C943E0028
:100060000C943E000C943E0011241FBECFEFD8E04C
:10007000DEBFCDBF0E9440000C9464000C940000D1
:10008000579A5F988AE18A95F1F700C05F9A80E5F8
:100090008A95F1F75F9885E38A95F1F700005F9AFA
:1000A0008AE18A95F1F700C05F988AE18A95F1F7B5
:1000B00000C05F9A8AE18A95F1F700C05F988AE1F3
:0C00C0008A95F1F700C0DDCFF894FFCF67
:00000001FF
