:100000000C9434000C9451000C9451000C94510049
:100010000C9453000C9451000C9451000C9451001A
:100020000C9451000C9451000C9451000C9451000C
:100030000C9451000C9451000C9451000C945100FC
:100040000C9451000C9451000C9451000C945100EC
:100050000C9451000C9451000C9451000C945100DC
:100060000C9451000C94510011241FBECFEFD8E026
:10007000DEBFCDBF11E0A0E0B1E0ECE6F9E002C0E8
:1000800005900D92A631B107D9F721E0A6E1B1E0C4
:1000900001C01D92A133B207E1F70E9451010C94F7
:1000A000B4040C9400001F920F920FB60F9211240B
:1000B0008F939F9386B180932E0180912E01807142
:1000C0008093300180912E0180728093180180917D
:1000D0002F0180932D0180912D0181110DC0809100
:1000E0003001882311F081E02EC08091180188230F
:1000F00009F441C082E034C080912D01813069F45F
:1001000080913001811103C010922F012BC080918A
:100110001801882381F183E016C080912D0182307F
:1001200069F480913001882311F083E019C0809137
:100130001801811120C010922F0107C08091300159
:10014000811109C082E080932F0180911601909166
:10015000170101960CC08091180181110CC081E03B
:1001600080932F0180911601909117010197909330
:100170001701809316019F918F910F900FBE0F90E2
:100180001F9018959BB19F709BB99BB1807F892B65
:100190008BB9299A299A29980895CF93C82F28981E
:1001A0000E94C2008C2F8295807F0E94C2008FE344
:1001B0009FE10197F1F700C00000CF9108958111F0
:1001C00002C090E001C090E480E8860F890F0C9493
:1001D000CD0084B1836084B98AB1806F8AB987B158
:1001E0008B7E87B988B1846188B98FE59AEE0197D3
:1001F000F1F700C0000080E30E94C2008FE19EE49E
:100200000197F1F700C0000080E30E94C2008FED6B
:1002100091E00197F1F700C0000080E30E94C20066
:1002200080E20E94C2008FE39FE10197F1F700C0D6
:10023000000088E20E94CD008FE39FE10197F1F773
:1002400000C000008FE00E94CD008FE39FE1019786
:10025000F1F700C000000895CF93C82F289A0E949C
:10026000C2008C2F8295807F0E94C2008FE39FE1A5
:100270000197F1F700C00000CF9108951F93CF932D
:10028000DF93EC0110E0FE01E10FF11D8081882376
:1002900021F00E942C011F5FF6CFDF91CF911F91BB
:1002A000089587B18F7C87B988B1806388B98091C0
:1002B000680082608093680080916C008063809306
:1002C0006C000E94E900789481E00E94CD0080E0FB
:1002D00091E00E943E0160E081E00E94DF008CE03E
:1002E00091E00E943E0186B180932E0180912E0103
:1002F00080718093300180912E018072809318016B
:1003000080911801811107C080913001811103C0D3
:1003100010922D0117C080911801811106C08091A3
:100320003001882311F081E00BC0809118018823EF
:1003300031F080913001811102C082E001C083E080
:1003400080932D0180912D0180932F0101E111E017
:1003500085E0F82EC9E1D1E090912F0180912D0127
:100360009817D1F380911601909117019F938F9365
:100370001F930F931F92FF92DF93CF930E94D5019B
:1003800060E081E00E94DF0089E191E00E943E018F
:1003900080912F0180932D018DB79EB708960FB6DF
:1003A000F8949EBF0FBE8DBFD7CFAEE0B0E0EBEDAF
:1003B000F1E00C948B040D891E898F89988D26E0BD
:1003C0002C831A83098397FF02C080E090E801978D
:1003D0009E838D83AE01455E5F4F698D7A8DCE0120
:1003E00001960E9405024D815E8157FD0AC02F8152
:1003F0003885421753070CF49A01F801E20FF31FF6
:1004000010822E96E4E00C94A704ACE0B0E0EBE0A0
:10041000F2E00C947D047C016B018A01FC011782DF
:100420001682838181FFBDC1CE0101964C01F70187
:100430009381F60193FD859193FF81916F0188234C
:1004400009F4ABC1853239F493FD859193FF819115
:100450006F01853229F4B70190E00E94ED03E7CFE8
:10046000512C312C20E02032A0F48B3269F030F492
:10047000803259F0833269F420612CC08D3239F01A
:10048000803339F4216026C02260246023C02860B4
:1004900021C027FD27C030ED380F3A3078F426FF11
:1004A00006C0FAE05F9E300D1124532E13C08AE07F
:1004B000389E300D1124332E20620CC08E3221F470
:1004C00026FD6BC1206406C08C3611F4206802C082
:1004D000883641F4F60193FD859193FF81916F0178
:1004E0008111C1CF982F9F7D9554933028F40C5FD4
:1004F0001F4FFFE3F9830DC0833631F0833771F06E
:10050000833509F05BC022C0F801808189830E5FCA
:100510001F4F44244394512C540115C03801F2E07C
:100520006F0E711CF801A080B18026FF03C0652DFD
:1005300070E002C06FEF7FEFC5012C870E94E203DD
:100540002C0183012C852F77222E17C03801F2E071
:100550006F0E711CF801A080B18026FF03C0652DCD
:1005600070E002C06FEF7FEFC5012C870E94D703B8
:100570002C012C852068222E830123FC1BC0832D97
:1005800090E048165906B0F4B70180E290E00E946E
:10059000ED033A94F4CFF50127FC859127FE819174
:1005A0005F01B70190E00E94ED0331103A94F1E051
:1005B0004F1A51084114510471F7E5C0843611F007
:1005C000893639F5F80127FF07C060817181828182
:1005D00093810C5F1F4F08C060817181882777FD70
:1005E0008095982F0E5F1F4F2F76B22E97FF09C070
:1005F00090958095709561957F4F8F4F9F4F2068A4
:10060000B22E2AE030E0A4010E941F04A82EA818F0
:1006100044C0853729F42F7EB22E2AE030E025C071
:10062000F22FF97FBF2E8F36C1F018F4883579F09C
:10063000B4C0803719F0883721F0AFC02F2F206168
:10064000B22EB4FE0DC08B2D8460B82E09C024FFDD
:100650000AC09F2F9660B92E06C028E030E005C082
:1006600020E130E002C020E132E0F801B7FE07C02F
:1006700060817181828193810C5F1F4F06C0608110
:10068000718180E090E00E5F1F4FA4010E941F0463
:10069000A82EA818FB2DFF77BF2EB6FE0BC02B2D62
:1006A0002E7FA51450F4B4FE0AC0B2FC08C02B2D56
:1006B0002E7E05C07A2C2B2D03C07A2C01C0752C00
:1006C00024FF0DC0FE01EA0DF11D8081803311F47D
:1006D000297E09C022FF06C07394739404C0822F40
:1006E000867809F0739423FD13C020FF06C05A2CAE
:1006F000731418F4530C5718732C731468F4B7015F
:1007000080E290E02C870E94ED0373942C85F5CF56
:10071000731410F4371801C0312C24FF12C0B70134
:1007200080E390E02C870E94ED032C8522FF17C008
:1007300021FF03C088E590E002C088E790E0B701A0
:100740000CC0822F867859F021FD02C080E201C0E2
:100750008BE227FD8DE2B70190E00E94ED03A51426
:1007600038F4B70180E390E00E94ED035A94F7CF8C
:10077000AA94F401EA0DF11D8081B70190E00E9476
:10078000ED03A110F5CF332009F451CEB70180E27B
:1007900090E00E94ED033A94F6CFF70186819781AD
:1007A00002C08FEF9FEF2C96E2E10C949904FC01BC
:1007B0000590615070400110D8F7809590958E0F8C
:1007C0009F1F0895FC016150704001900110D8F7FF
:1007D000809590958E0F9F1F08950F931F93CF9331
:1007E000DF93182F092FEB018B8181FD03C08FEF61
:1007F0009FEF20C082FF10C04E815F812C813D8120
:10080000421753077CF4E881F9819F012F5F3F4F26
:1008100039832883108306C0E885F985812F0995DF
:10082000892B29F72E813F812F5F3F4F3F832E83F6
:10083000812F902FDF91CF911F910F910895FA0191
:10084000AA27283051F1203181F1E8946F936E7F0F
:100850006E5F7F4F8F4F9F4FAF4FB1E03ED0B4E000
:100860003CD0670F781F891F9A1FA11D680F791F41
:100870008A1F911DA11D6A0F711D811D911DA11D52
:1008800020D009F468943F912AE0269F1124301962
:10089000305D3193DEF6CF010895462F4770405DFD
:1008A0004193B3E00FD0C9F7F6CF462F4F70405DAC
:1008B0004A3318F0495D31FD4052419302D0A9F707
:1008C000EACFB4E0A6959795879577956795BA9501
:1008D000C9F700976105710508959B01AC010A2EC7
:1008E00006945795479537952795BA95C9F7620F9E
:1008F000731F841F951FA01D08952F923F924F9242
:100900005F926F927F928F929F92AF92BF92CF929F
:10091000DF92EF92FF920F931F93CF93DF93CDB7A8
:10092000DEB7CA1BDB0B0FB6F894DEBF0FBECDBF20
:1009300009942A88398848885F846E847D848C84F1
:100940009B84AA84B984C884DF80EE80FD800C81FA
:100950001B81AA81B981CE0FD11D0FB6F894DEBFDD
:0C0960000FBECDBFED010895F894FFCF4D
:10096C004545313039204C6162203900202020303F
:06097C00002534640000B8
:00000001FF
