:100000000C9434000C943E000C943E000C943E0082
:100010000C943E000C943E000C943E000C943E0068
:100020000C943E000C943E000C943E000C943E0058
:100030000C943E000C943E000C943E000C943E0048
:100040000C943E000C943E000C943E000C943E0038
:100050000C943E000C943E000C943E000C943E0028
:100060000C943E000C943E0011241FBECFEFD8E04C
:10007000DEBFCDBF0E9466000C9463010C940000AB
:10008000289808952FEF84E39CE021508040904011
:10009000E1F700C0000008952FEF8EE994E22150AF
:1000A00080409040E1F700C000000895811102C037
:1000B0000C944000289A089529B130E002C035958B
:1000C00027958A95E2F7822F81700895209A8AB148
:1000D000837E8AB98BB18C618BB982E00E945C000F
:1000E000811145C081E00E9456002FEF84E39CE01F
:1000F000215080409040E1F700C000000E94400085
:100100002FEF84E39CE0215080409040E1F700C055
:10011000000081E00E9456002FEF84E39CE0215014
:1001200080409040E1F700C000000E9440002FEFA7
:1001300084E39CE0215080409040E1F700C0000043
:1001400081E00E9456002FEF8EE994E2215080401A
:100150009040E1F700C000000E9440002FEF8EE9C0
:1001600094E2215080409040E1F700C0000083E01D
:100170000E945C00811145C081E00E9456002FEF73
:1001800084E39CE0215080409040E1F700C00000F3
:100190000E9440002FEF84E39CE02150804090407B
:1001A000E1F700C0000081E00E9456002FEF84E3D9
:1001B0009CE0215080409040E1F700C000000E9488
:1001C00040002FEF84E39CE0215080409040E1F715
:1001D00000C0000081E00E9456002FEF84E39CE005
:1001E000215080409040E1F700C000000E94400094
:1001F0002FEF8EE994E2215080409040E1F700C05B
:10020000000084E00E945C00811167CF81E00E94C1
:1002100056002FEF8EE994E2215080409040E1F7A4
:1002200000C000000E9440002FEF84E39CE02150BA
:1002300080409040E1F700C0000081E00E9456003D
:100240002FEF84E39CE0215080409040E1F700C014
:1002500000000E9440002FEF84E39CE0215080408A
:100260009040E1F700C0000081E00E9456002FEFAF
:100270008EE994E2215080409040E1F700C00000F8
:100280000E9440002FEF84E39CE02150804090408A
:10029000E1F700C0000081E00E9456002FEF84E3E8
:1002A0009CE0215080409040E1F700C000000E9497
:1002B00040002FEF8EE994E2215080409040E1F71A
:0A02C00000C000000ACFF894FFCF41
:00000001FF
