:100000000C9434000C943E000C943E000C943E0082
:100010000C943E000C943E000C943E000C943E0068
:100020000C943E000C943E000C943E000C943E0058
:100030000C943E000C943E000C943E000C943E0048
:100040000C943E000C943E000C943E000C943E0038
:100050000C943E000C943E000C943E000C943E0028
:100060000C943E000C943E0011241FBECFEFD8E04C
:10007000DEBFCDBF0E94B4000C94E6000C940000DB
:10008000089508959BB19F709BB99BB1807F892B88
:100090008BB9299A299A29980895CF93C82F28981F
:1000A0000E9442008C2F8295807F0E9442008FE345
:1000B0009FE10197F1F700C00000CF91089584B14E
:1000C000836084B98AB1806F8AB987B18B7E87B922
:1000D00088B1846188B98FE59AEE0197F1F700C085
:1000E000000080E30E9442008FE19EE40197F1F757
:1000F00000C0000080E30E9442008FED91E0019774
:10010000F1F700C0000080E30E94420080E20E94FC
:1001100042008FE39FE10197F1F700C0000088E201
:100120000E944D008FE39FE10197F1F700C00000AE
:100130008FE00E944D008FE39FE10197F1F700C02F
:1001400000000895CF93C82F289A0E9442008C2F58
:100150008295807F0E9442008FE39FE10197F1F733
:1001600000C00000CF9108950E945F0080E0D1E0C0
:10017000C0E0329B1CC0349B25C08233D9F4D130FF
:1001800019F4CF5FD1E004C0CC2331F0C150D0E0EE
:10019000CA3020F0C0E002C0D0E0C9E081E00E9497
:1001A0004D0080E38C0F0E94A20080E004C08233E7
:1001B00041F3D1E08F5FEFE3FCE93197F1F700C045
:1001C0000000D7CF823301F3D0E0F4CFF894FFCF13
:00000001FF
