:100000000C9434000C9451000C9451000C94510049
:100010000C9451000C9451000C9451000C9451001C
:100020000C9451000C9451000C9451000C947800E5
:100030000C9451000C9451000C9451000C945100FC
:100040000C9451000C9451000C9451000C945100EC
:100050000C9451000C9451000C9451000C945100DC
:100060000C9451000C94510011241FBECFEFD8E026
:10007000DEBFCDBF11E0A0E0B1E0EAE9F4E002C0EC
:1000800005900D92AC30B107D9F721E0ACE0B1E0BA
:1000900001C01D92A331B207E1F70E948D010C94BB
:1000A0004B020C940000ECE7F0E010828081806449
:1000B0008083808180628083EAE7F0E01082808123
:1000C000876080838081806880830895E1E8F0E024
:1000D000208128602083AFE6B0E02C9122602C9331
:1000E0009093890080938800808184608083089544
:1000F0001F920F920FB60F9211242F933F934F939D
:100100005F936F937F938F939F93AF93BF93EF937F
:10011000FF9320910C01222309F45FC0809111010B
:1001200090911201099751F0809111019091120163
:10013000019690931201809311012CC0109212012C
:100140001092110180910F0190911001099751F0C7
:1001500080910F019091100101969093100180936E
:100160000F0118C01092100110920F0180910D0123
:1001700090910E01059751F080910D0190910E0123
:10018000019690930E0180930D0104C010920E0110
:1001900010920D01213009F560E080E00E941B0102
:1001A00080910D0190910E01805D0E94680161E0D7
:1001B00080E00E941B0180910F0190911001805DF1
:1001C0000E94680163E080E00E941B0180911101A0
:1001D00090911201805D0E946801FF91EF91BF91A3
:1001E000AF919F918F917F916F915F914F913F91CF
:1001F0002F910F900FBE0F901F9018959BB19F707D
:100200009BB99BB1807F892B8BB9299A299A299810
:100210000895CF93C82F28980E94FE008C2F8295B6
:10022000807F0E94FE008FE39FE10197F1F700C0FD
:100230000000CF910895811102C090E001C090E4C8
:1002400080E8860F890F0C94090184B1836084B91A
:100250008AB1806F8AB987B18B7E87B988B1846192
:1002600088B98FE59AEE0197F1F700C0000080E3AE
:100270000E94FE008FE19EE40197F1F700C00000AC
:1002800080E30E94FE008FED91E00197F1F700C03E
:10029000000080E30E94FE0080E20E94FE008FE3E7
:1002A0009FE10197F1F700C0000088E20E94090178
:1002B0008FE39FE10197F1F700C000008FE00E94FB
:1002C00009018FE39FE10197F1F700C00000089555
:1002D000CF93C82F289A0E94FE008C2F8295807F92
:1002E0000E94FE008FE39FE10197F1F700C000003C
:1002F000CF9108951F93CF93DF93EC0110E0FE019F
:10030000E10FF11D8081882321F00E9468011F5FA9
:10031000F6CFDF91CF911F910895CF93DF93CDB7A3
:10032000DEB760970FB6F894DEBF0FBECDBF0E9458
:1003300053000E94250181E00E94090160E071E004
:10034000CE0101960E944402CE0101960E947A01DC
:100350002FEF8BE792E9215080409040E1F700C0F9
:10036000000081E00E94090162E080E00E941B0120
:1003700089E091E00E947A0160E080E00E941B0128
:1003800080910D0190910E01805D0E94680161E0F5
:1003900080E00E941B0180910F0190911001805D0F
:1003A0000E94680163E080E00E941B0180911101BE
:1003B00090911201805D0E9468018AE698E10E9496
:1003C0006600789411E002E080917A008064809366
:1003D0007A0080917A0086FDFCCF9091790080EDC3
:1003E000890F873048F480910C018D7F19F41093A8
:1003F0000C0102C010920C0193569730D8F58091F1
:100400000C01813019F400930C0134C0823019F4CE
:1004100010930C012FC010920C0110920E0110923B
:100420000D011092100110920F0110921201109202
:10043000110160E080E00E941B0180910D0190910C
:100440000E01805D0E94680161E080E00E941B0156
:1004500080910F0190911001805D0E94680163E01E
:1004600080E00E941B018091110190911201805D3A
:100470000E9468012FEF84E39CE02150804090406F
:10048000E1F700C00000A0CFFB01DC0101900D925C
:0A0490000020E1F70895F894FFCF73
:0C049A004D61636F73736179002E0000E8
:00000001FF
