:100000000C9434000C9451000C9451000C94E900B1
:100010000C9451000C9451000C9451000C9451001C
:100020000C9451000C9451000C9451000C9451000C
:100030000C9451000C9451000C9451000C945100FC
:100040000C9451000C9451000C9451000C945100EC
:100050000C9451000C9451000C9451000C945100DC
:100060000C9451000C94510011241FBECFEFD8E026
:10007000DEBFCDBF11E0A0E0B1E0E0E6FAE002C0F3
:1000800005900D92A830B107D9F721E0A8E0B1E0C2
:1000900001C01D92A131B207E1F70E942F020C941A
:1000A0002E050C940000EF92FF920F931F93CF93B5
:1000B000DF93CDB7DEB760970FB6F894DEBF0FBE03
:1000C000CDBF84B1877E84B985B1886185B98091BF
:1000D000680081608093680080916B0088618093E4
:1000E0006B0083B180930A0180910A01887080932C
:1000F000100180910A0180718093080180910801AC
:10010000811107C080911001811103C01092090173
:1001100017C080910801811106C0809110018823C9
:1001200011F081E00BC080910801882331F08091AB
:100130001001811102C082E001C083E080930901B7
:100140008091090180930B0188EC90E00E943704B4
:10015000E82EF12C81E00E94AB0180E091E00E944A
:100160001C0260E081E00E94BD011F9285E08F9338
:1001700085E091E09F938F938E010F5F1F4F1F9338
:100180000F930E943502C8010E941C02C70101970B
:100190000F900F900F900F900F900F908336910556
:1001A00028F4F0920F01E0920E0106C082E390E085
:1001B00090930F0180930E0160960FB6F894DEBF06
:1001C0000FBECDBFDF91CF911F910F91FF90EF90A8
:1001D00008951F920F920FB60F9211242F933F9301
:1001E0004F935F936F937F938F939F93AF93BF933F
:1001F000EF93FF9383B180930A0180910A01887085
:100200008093100180910A01807180930801809190
:10021000090180930B0180910E0190910F01909341
:100220000D0180930C018091090181110DC0809115
:100230001001882311F081E02EC0809108018823ED
:1002400009F441C082E034C080910901813069F431
:1002500080911001811103C010920B012BC080917D
:100260000801882381F183E016C080910901823062
:1002700069F480911001882311F083E019C0809106
:100280000801811120C010920B0107C0809110015C
:10029000811109C082E080930B0180910E01909141
:1002A0000F0101960CC08091080181110CC081E002
:1002B00080930B0180910E0190910F010197909313
:1002C0000F0180930E0180910E0190910F01892BF7
:1002D00031F481E090E090930F0180930E018091C2
:1002E0000E0190910F018436910530F083E690E085
:1002F00090930F0180930E0120910C0130910D011C
:1003000080910E0190910F012817390741F06091FB
:100310000E0170910F0188EC90E00E943F04FF9164
:10032000EF91BF91AF919F918F917F916F915F916D
:100330004F913F912F910F900FBE0F901F901895E6
:100340009BB19F709BB99BB1807F892B8BB9299AF8
:10035000299A29980895CF93C82F28980E94A00120
:100360008C2F8295807F0E94A0018FE39FE10197EF
:10037000F1F700C00000CF910895811102C090E014
:1003800001C090E480E8860F890F0C94AB0184B122
:10039000836084B98AB1806F8AB987B18B7E87B94F
:1003A00088B1846188B98FE59AEE0197F1F700C0B2
:1003B000000080E30E94A0018FE19EE40197F1F725
:1003C00000C0000080E30E94A0018FED91E0019742
:1003D000F1F700C0000080E30E94A00180E20E94CB
:1003E000A0018FE39FE10197F1F700C0000088E2D0
:1003F0000E94AB018FE39FE10197F1F700C000007D
:100400008FE00E94AB018FE39FE10197F1F700C0FD
:1004100000000895CF93C82F289A0E94A0018C2F26
:100420008295807F0E94A0018FE39FE10197F1F701
:1004300000C00000CF9108951F93CF93DF93EC018C
:1004400010E0FE01E10FF11D8081882321F00E9460
:100450000A021F5FF6CFDF91CF911F9108950E948E
:10046000C7010E9453007894FFCFAEE0B0E0EBE309
:10047000F2E00C9405050D891E898F89988D26E080
:100480002C831A83098397FF02C080E090E80197CC
:100490009E838D83AE01455E5F4F698D7A8DCE015F
:1004A00001960E9465024D815E8157FD0AC02F8131
:1004B0003885421753070CF49A01F801E20FF31F35
:1004C00010822E96E4E00C942105ACE0B0E0EBE65F
:1004D000F2E00C94F7047C016B018A01FC011782A5
:1004E0001682838181FFBDC1CE0101964C01F701C7
:1004F0009381F60193FD859193FF81916F0188238C
:1005000009F4ABC1853239F493FD859193FF819154
:100510006F01853229F4B70190E00E946704E7CFAC
:10052000512C312C20E02032A0F48B3269F030F4D1
:10053000803259F0833269F420612CC08D3239F059
:10054000803339F4216026C02260246023C02860F3
:1005500021C027FD27C030ED380F3A3078F426FF50
:1005600006C0FAE05F9E300D1124532E13C08AE0BE
:10057000389E300D1124332E20620CC08E3221F4AF
:1005800026FD6BC1206406C08C3611F4206802C0C1
:10059000883641F4F60193FD859193FF81916F01B7
:1005A0008111C1CF982F9F7D9554933028F40C5F13
:1005B0001F4FFFE3F9830DC0833631F0833771F0AD
:1005C000833509F05BC022C0F801808189830E5F0A
:1005D0001F4F44244394512C540115C03801F2E0BC
:1005E0006F0E711CF801A080B18026FF03C0652D3D
:1005F00070E002C06FEF7FEFC5012C870E945C04A2
:100600002C0183012C852F77222E17C03801F2E0B0
:100610006F0E711CF801A080B18026FF03C0652D0C
:1006200070E002C06FEF7FEFC5012C870E9451047C
:100630002C012C852068222E830123FC1BC0832DD6
:1006400090E048165906B0F4B70180E290E00E94AD
:1006500067043A94F4CFF50127FC859127FE819138
:100660005F01B70190E00E94670431103A94F1E015
:100670004F1A51084114510471F7E5C0843611F046
:10068000893639F5F80127FF07C0608171818281C1
:1006900093810C5F1F4F08C060817181882777FDAF
:1006A0008095982F0E5F1F4F2F76B22E97FF09C0AF
:1006B00090958095709561957F4F8F4F9F4F2068E3
:1006C000B22E2AE030E0A4010E949904A82EA818B6
:1006D00044C0853729F42F7EB22E2AE030E025C0B1
:1006E000F22FF97FBF2E8F36C1F018F4883579F0DC
:1006F000B4C0803719F0883721F0AFC02F2F2061A8
:10070000B22EB4FE0DC08B2D8460B82E09C024FF1C
:100710000AC09F2F9660B92E06C028E030E005C0C1
:1007200020E130E002C020E132E0F801B7FE07C06E
:1007300060817181828193810C5F1F4F06C060814F
:10074000718180E090E00E5F1F4FA4010E94990428
:10075000A82EA818FB2DFF77BF2EB6FE0BC02B2DA1
:100760002E7FA51450F4B4FE0AC0B2FC08C02B2D95
:100770002E7E05C07A2C2B2D03C07A2C01C0752C3F
:1007800024FF0DC0FE01EA0DF11D8081803311F4BC
:10079000297E09C022FF06C07394739404C0822F7F
:1007A000867809F0739423FD13C020FF06C05A2CED
:1007B000731418F4530C5718732C731468F4B7019E
:1007C00080E290E02C870E94670473942C85F5CF1B
:1007D000731410F4371801C0312C24FF12C0B70174
:1007E00080E390E02C870E9467042C8522FF17C0CD
:1007F00021FF03C088E590E002C088E790E0B701E0
:100800000CC0822F867859F021FD02C080E201C021
:100810008BE227FD8DE2B70190E00E946704A514EA
:1008200038F4B70180E390E00E9467045A94F7CF50
:10083000AA94F401EA0DF11D8081B70190E00E94B5
:100840006704A110F5CF332009F451CEB70180E23F
:1008500090E00E9467043A94F6CFF7018681978171
:1008600002C08FEF9FEF2C96E2E10C941305F999EB
:10087000FECF92BD81BDF89A992780B50895262FA5
:10088000F999FECF92BD81BDF89A019700B4021686
:1008900039F01FBA20BD0FB6F894FA9AF99A0FBE34
:1008A0000895FC010590615070400110D8F78095C3
:1008B00090958E0F9F1F0895FC016150704001902C
:1008C0000110D8F7809590958E0F9F1F08950F9374
:1008D0001F93CF93DF93182F092FEB018B8181FD9D
:1008E00003C08FEF9FEF20C082FF10C04E815F8159
:1008F0002C813D81421753077CF4E881F9819F01E7
:100900002F5F3F4F39832883108306C0E885F98520
:10091000812F0995892B29F72E813F812F5F3F4F2A
:100920003F832E83812F902FDF91CF911F910F91C5
:100930000895FA01AA27283051F1203181F1E89475
:100940006F936E7F6E5F7F4F8F4F9F4FAF4FB1E0C2
:100950003ED0B4E03CD0670F781F891F9A1FA11DBD
:10096000680F791F8A1F911DA11D6A0F711D811DBE
:10097000911DA11D20D009F468943F912AE0269F83
:1009800011243019305D3193DEF6CF010895462FE2
:100990004770405D4193B3E00FD0C9F7F6CF462FC3
:1009A0004F70405D4A3318F0495D31FD405241932C
:1009B00002D0A9F7EACFB4E0A695979587957795E9
:1009C0006795BA95C9F700976105710508959B0170
:1009D000AC010A2E06945795479537952795BA95F9
:1009E000C9F7620F731F841F951FA01D08952F92D2
:1009F0003F924F925F926F927F928F929F92AF92AF
:100A0000BF92CF92DF92EF92FF920F931F93CF93FB
:100A1000DF93CDB7DEB7CA1BDB0B0FB6F894DEBF92
:100A20000FBECDBF09942A88398848885F846E84B8
:100A30007D848C849B84AA84B984C884DF80EE8002
:100A4000FD800C811B81AA81B981CE0FD11D0FB60B
:100A5000F894DEBF0FBECDBFED010895F894FFCF2F
:080A6000486F6C610025640081
:00000001FF
