:100000000C9434000C9449000C9449000C94490061
:100010000C9449000C9449000C9449000C9449003C
:100020000C9449000C9449000C9449000C9449002C
:100030000C9449000C9449000C9449000C9449001C
:100040000C9449000C9449000C9449000C9449000C
:100050000C9449000C9449000C9449000C944900FC
:100060000C9449000C94490011241FBECFEFD8E036
:10007000DEBFCDBF11E0A0E0B1E0E0EDF9E002C0ED
:1000800005900D92AE35B107D9F70E94ED000C94A2
:10009000E6040C940000ECE7F0E0108280818064BC
:1000A0008083808180628083EAE7F0E01082808133
:1000B0008760808380818068808308959BB19F7072
:1000C0009BB99BB1807F892B8BB9299A299A299852
:1000D0000895CF93C82F28980E945E008C2F829598
:1000E000807F0E945E008FE39FE10197F1F700C0DF
:1000F0000000CF910895811102C090E001C090E40A
:1001000080E8860F890F0C94690084B1836084B9FC
:100110008AB1806F8AB987B18B7E87B988B18461D3
:1001200088B98FE59AEE0197F1F700C0000080E3EF
:100130000E945E008FE19EE40197F1F700C000008D
:1001400080E30E945E008FED91E00197F1F700C01F
:10015000000080E30E945E0080E20E945E008FE368
:100160009FE10197F1F700C0000088E20E9469005A
:100170008FE39FE10197F1F700C000008FE00E943C
:1001800069008FE39FE10197F1F700C00000089537
:10019000CF93C82F289A0E945E008C2F8295807F73
:1001A0000E945E008FE39FE10197F1F700C000001D
:1001B000CF9108951F93CF93DF93EC0110E0FE01E0
:1001C000E10FF11D8081882321F00E94C8001F5F8C
:1001D000F6CFDF91CF911F910895CF93DF93CDB7E5
:1001E000DEB7CB54D1090FB6F894DEBF0FBECDBF3A
:1001F0000E944B000E94850081E00E94690080E01F
:1002000091E00E94DA0080EC0E9469001F928EE566
:100210008F931F9283E08F931F9282E08F9387E0EA
:1002200091E09F938F931F928EE18F938E010F5FCA
:100230001F4F1F930F930E940702C8010E94DA000C
:100240002FEF37EA81E6215030408040E1F700C0CF
:10025000000081E00E94690081E1EBE3F1E0DE0152
:10026000D09601900D928A95E1F781E1ECE4F1E0FE
:10027000DE015F9601900D928A95E1F7CE01C0965E
:100280000E94DA0080EC0E946900CE014F960E9425
:10029000DA0080E80E9469008CE191E00E94DA00B7
:1002A0000FB6F894DEBF0FBECDBFE12C80E060E05A
:1002B00000E090917A00906490937A0090917A0097
:1002C00096FDFCCF909179009F3F99F327E6290F87
:1002D000273010F41FEF03C0911104C011E0160F76
:1002E0000F5F11C020ED290F273018F4FF24FA9476
:1002F00005C09356973030F4FF24F394F80E0F5F47
:10030000162F02C0162FF82E91E0F91290E01F3040
:1003100011F4911142C021E02F1508F020E01031B6
:1003200008F021E0F11017C0E0E3F0E0EC0FFD1F52
:10033000E10FF11D17FDFA959081903281F52C9611
:100340002FAF2C970E947B008AE491E00E94DA0094
:10035000612F80E018C0992311F1EFE1F0E0EC0F7C
:10036000FD1FE10FF11D17FDFA9590819032B9F450
:100370002C962FAF2C970E947B008AE491E00E947C
:10038000DA00612F8F2D0E947B008CE191E00E94AA
:10039000DA002C962FAD2C9703C0EE24E39421E0D5
:1003A0003FEF84E39CE0315080409040E1F700C093
:1003B0000000213019F08F2D612F7BCF81E00E944A
:1003C000690021E0E21203C08EE191E002C087E201
:1003D00091E00E94DA0080EC0E9469001F920F9366
:1003E00081E391E09F938F931F928AE08F938E0118
:1003F0000F5B1F4F1F930F930E940702C8010E94BB
:10040000DA000FB6F894DEBF0FBECDBFFFCFAEE06F
:10041000B0E0EDE0F2E00C94BD040D891E898F89F7
:10042000988D26E02C831A83098397FF02C080E011
:1004300090E801979E838D83AE01455E5F4F698D85
:100440007A8DCE0101960E9437024D815E8157FD63
:100450000AC02F813885421753070CF49A01F8011E
:10046000E20FF31F10822E96E4E00C94D904ACE066
:10047000B0E0EDE3F2E00C94AF047C016B018A0183
:10048000FC0117821682838181FFBDC1CE010196D6
:100490004C01F7019381F60193FD859193FF8191C2
:1004A0006F01882309F4ABC1853239F493FD85913E
:1004B00093FF81916F01853229F4B70190E00E948A
:1004C0001F04E7CF512C312C20E02032A0F48B32D6
:1004D00069F030F4803259F0833269F420612CC025
:1004E0008D3239F0803339F4216026C022602460D7
:1004F00023C0286021C027FD27C030ED380F3A30D7
:1005000078F426FF06C0FAE05F9E300D1124532ECA
:1005100013C08AE0389E300D1124332E20620CC0A7
:100520008E3221F426FD6BC1206406C08C3611F496
:10053000206802C0883641F4F60193FD859193FF4F
:1005400081916F018111C1CF982F9F7D9554933078
:1005500028F40C5F1F4FFFE3F9830DC0833631F0A1
:10056000833771F0833509F05BC022C0F8018081C8
:1005700089830E5F1F4F44244394512C540115C0AE
:100580003801F2E06F0E711CF801A080B18026FFE7
:1005900003C0652D70E002C06FEF7FEFC5012C87AF
:1005A0000E9414042C0183012C852F77222E17C062
:1005B0003801F2E06F0E711CF801A080B18026FFB7
:1005C00003C0652D70E002C06FEF7FEFC5012C877F
:1005D0000E9409042C012C852068222E830123FC13
:1005E0001BC0832D90E048165906B0F4B70180E295
:1005F00090E00E941F043A94F4CFF50127FC859106
:1006000027FE81915F01B70190E00E941F04311025
:100610003A94F1E04F1A51084114510471F7E5C0C2
:10062000843611F0893639F5F80127FF07C060815B
:100630007181828193810C5F1F4F08C0608171813D
:10064000882777FD8095982F0E5F1F4F2F76B22E4B
:1006500097FF09C090958095709561957F4F8F4F5A
:100660009F4F2068B22E2AE030E0A4010E9451047E
:10067000A82EA81844C0853729F42F7EB22E2AE070
:1006800030E025C0F22FF97FBF2E8F36C1F018F46D
:10069000883579F0B4C0803719F0883721F0AFC0C1
:1006A0002F2F2061B22EB4FE0DC08B2D8460B82E8A
:1006B00009C024FF0AC09F2F9660B92E06C028E00B
:1006C00030E005C020E130E002C020E132E0F80176
:1006D000B7FE07C060817181828193810C5F1F4FDB
:1006E00006C06081718180E090E00E5F1F4FA40121
:1006F0000E945104A82EA818FB2DFF77BF2EB6FE2E
:100700000BC02B2D2E7FA51450F4B4FE0AC0B2FCF2
:1007100008C02B2D2E7E05C07A2C2B2D03C07A2CE1
:1007200001C0752C24FF0DC0FE01EA0DF11D808172
:10073000803311F4297E09C022FF06C0739473949C
:1007400004C0822F867809F0739423FD13C020FF24
:1007500006C05A2C731418F4530C5718732C7314C6
:1007600068F4B70180E290E02C870E941F04739424
:100770002C85F5CF731410F4371801C0312C24FFE9
:1007800012C0B70180E390E02C870E941F042C85E3
:1007900022FF17C021FF03C088E590E002C088E770
:1007A00090E0B7010CC0822F867859F021FD02C07D
:1007B00080E201C08BE227FD8DE2B70190E00E944C
:1007C0001F04A51438F4B70180E390E00E941F04D1
:1007D0005A94F7CFAA94F401EA0DF11D8081B70174
:1007E00090E00E941F04A110F5CF332009F451CEF0
:1007F000B70180E290E00E941F043A94F6CFF7011F
:100800008681978102C08FEF9FEF2C96E2E10C94D6
:10081000CB04FC010590615070400110D8F7809521
:1008200090958E0F9F1F0895FC01615070400190BC
:100830000110D8F7809590958E0F9F1F08950F9304
:100840001F93CF93DF93182F092FEB018B8181FD2D
:1008500003C08FEF9FEF20C082FF10C04E815F81E9
:100860002C813D81421753077CF4E881F9819F0177
:100870002F5F3F4F39832883108306C0E885F985B1
:10088000812F0995892B29F72E813F812F5F3F4FBB
:100890003F832E83812F902FDF91CF911F910F9156
:1008A0000895FA01AA27283051F1203181F1E89406
:1008B0006F936E7F6E5F7F4F8F4F9F4FAF4FB1E053
:1008C0003ED0B4E03CD0670F781F891F9A1FA11D4E
:1008D000680F791F8A1F911DA11D6A0F711D811D4F
:1008E000911DA11D20D009F468943F912AE0269F14
:1008F00011243019305D3193DEF6CF010895462F73
:100900004770405D4193B3E00FD0C9F7F6CF462F53
:100910004F70405D4A3318F0495D31FD40524193BC
:1009200002D0A9F7EACFB4E0A69597958795779579
:100930006795BA95C9F700976105710508959B0100
:10094000AC010A2E06945795479537952795BA9589
:10095000C9F7620F731F841F951FA01D08952F9262
:100960003F924F925F926F927F928F929F92AF923F
:10097000BF92CF92DF92EF92FF920F931F93CF938C
:10098000DF93CDB7DEB7CA1BDB0B0FB6F894DEBF23
:100990000FBECDBF09942A88398848885F846E8449
:1009A0007D848C849B84AA84B984C884DF80EE8093
:1009B000FD800C811B81AA81B981CE0FD11D0FB69C
:1009C000F894DEBF0FBECDBFED010895F894FFCFC0
:1009D0004A6176696572004269727468646179205F
:1009E00069732025642F25642F2564002A00596F20
:1009F000752057696E2100596F75204C6F73652102
:100A0000004D6F7665733A20256400202023232053
:100A100020202020202323202020200020202020F0
:0E0A2000202323202320202020202346000016
:00000001FF
